:020000040800F2
:10000000380900208901000811230008B11D0008EB
:1000100075200008E90400084925000800000000D8
:10002000000000000000000000000000192300088C
:10003000ED0400080000000015230008F923000863
:10004000A3010008A3010008A3010008A301000800
:10005000A3010008A3010008A3010008A3010008F0
:10006000A3010008A3010008A3010008A3010008E0
:10007000A3010008A3010008A3010008A3010008D0
:10008000A3010008A3010008A3010008A3010008C0
:10009000A3010008A3010008A3010008A3010008B0
:1000A000A301000801240008A3010008A30100081F
:1000B0000D2400081924000825240008A3010008C5
:1000C000A3010008A3010008A3010008A301000880
:1000D000A30100083D250008A3010008A3010008B2
:1000E000A3010008A3010008A301000800F002F822
:1000F00000F03AF80AA090E8000C82448344AAF188
:100100000107DA4501D100F02FF8AFF2090EBAE885
:100110000F0013F0010F18BFFB1A43F0010318473B
:100120007034000090340000103A24BF78C878C1C1
:10013000FAD8520724BF30C830C144BF04680C60ED
:10014000704700000023002400250026103A28BF35
:1001500078C1FBD8520728BF30C148BF0B60704739
:100160001FB51FBD10B510BD00F044F81146FFF7D4
:10017000F7FF02F0EBF900F062F803B4FFF7F2FFCB
:1001800003BC00F065F800000948804709480047B3
:10019000FEE7FEE7FEE7FEE7FEE7FEE7FEE7FEE737
:1001A000FEE7FEE704480549054A064B7047000094
:1001B000FD230008ED000008380300203809002066
:1001C000380500203805002070477047704710B58B
:1001D00000F008F8006810BD10B5044600F002F801
:1001E000046010BD004870471000002000487047B0
:1001F000100000207546FFF7F9FFAE46050069467E
:10020000534620F00700854618B020B5FFF7CAFF17
:10021000BDE820404FF000064FF000074FF0000807
:100220004FF0000BAC46ACE8C009ACE8C009ACE844
:10023000C009ACE8C00921F007018D46704710B530
:100240000446AFF300802046BDE81040FFF795BF9D
:1002500001491820ABBEFEE72600020070470000EF
:100260002DE9F04381B00D460899044608469846AA
:10027000174602F047FC48F26E6242F2F913CFF2E1
:100280001B02C4F2190302F051FC0023C4F24E0316
:100290000022002602F068FA02F0F0FB8146012DF0
:1002A000A66105DBE06A618E012200F0BBFA6D00F9
:1002B000B5F1FF3F54DD002D5CD0484602F022FC32
:1002C00002460B4648F206104AF28B21C4F29530E2
:1002D000C4F2930102F048FA02F0A0FB47F6B061C5
:1002E000C0F27F11B1FBF7F12061084602F00AFC71
:1002F00002F06BF94AF24013C4F22413002202F018
:1003000015FC48F60003C4F2C303002202F02CFAE5
:1003100002F0B4FB192148F21F527943C5F2EB12E7
:10032000A1FB021209FB09F142F210734B43510980
:10033000B3FBF1F1B3EB521F05FB08F308EB070623
:1003400038BF0121B3FBF6F29E4288BF01228A42E8
:10035000606013D97943B1FBF8F149420FE000BF67
:10036000E06A618E0022002600F05CFAA6EB4505EB
:10037000002DA2D101B0BDE8F08300BF511B0029C0
:1003800008BF4FF0FF3122694B19A3608242E16040
:1003900026BF6260032001206070606B00216161F4
:1003A00001684FF47A72CA62C26001B0BDE8F043DE
:1003B00000F018BFDDF800C00286A0F832C0C0E926
:1003C0000A13704741637047B0B50446406B6268DA
:1003D0000168CA626178C260032909D8DFE801F0C8
:1003E00002520C3A0025C4E9065500F033FF25708F
:1003F000206A6060B0BD00BFA06A218E0122227019
:1004000000F008FA04F1140207CA0131451CA16189
:1004100029466368B0F1FF3FB8BFC143890002EBD2
:1004200043020131B2FBF1F165611944002D2162F3
:1004300048BF6D42A9000131B2FBF1F3B0F1FF3FBB
:1004400003FB1121E161A4BF00206070206A60609D
:10045000B0BD00BFA06A218E0122227000F0DAF93F
:10046000A169A068226901318142A1612262BFD3E2
:10047000E068616A6061022021626070206A6060E9
:10048000B0BD00BFA06A218E0122227000F0C2F927
:10049000D4E90532D4E9010C0133E56963619B00BD
:1004A00005EB400543F00103B5FBF3F10132401ABF
:1004B00001FB13516245A2612062E1610CD2216906
:1004C000884295D8002260620320C4E90721607049
:1004D000206A6060B0BD00BFE068606102206070AB
:1004E000206A6060B0BD0000FEE7000070470000B9
:1004F000EFF3108072B600BFFEE70000014690F8EF
:100500002100022816D10868D1E90FC3026822F041
:100510000E020260026822F001020260012000FA6D
:1005200003F2CCF8042081F821000020002281F899
:1005300020207047042088630120002281F82020B9
:100540007047000080B590F82110022924D102687C
:10055000116821F00E0111602F211368C4F202010D
:100560008A4240F20401C4F2020123F00103136045
:1005700016DD3023C4F202039A421DD04423C4F294
:1005800002039A421CD05823C4F202039A421DD19E
:100590004FF4803322E000BF04218163012080BD3D
:1005A0000823C4F202039A420ED01C23C4F20203B1
:1005B0009A420BD1102311E04FF480730EE000BF7C
:1005C0004FF480530AE000BF012307E001F1680CFB
:1005D0004FF08073624508BF4FF480130B60012118
:1005E00080F82110426B002180F820100AB190475A
:1005F0000021084680BD00002DE9F04F82B00E6852
:10060000002E00F0038141F20042C4F201020423F3
:1006100040F2004E904208BF03234FF6FF7CC4F225
:10062000010E009300240123C1F2100C4FF0000AC8
:100630004FF0000949E000BF012704F00C030F222E
:100640009A402BEA020207FA03F34FEA9A051A438B
:1006500046F82520D1F804B040F20C455FEACB22E1
:10066000DEF8082054BF22EA080242EA0802C4F277
:100670000105CEF808202A685FEA8B2354BF22EADE
:10068000080242EA08022A605FEA8B33DEF804209F
:1006900054BF22EA080242EA08025FEACB33CEF8EE
:1006A0000420DEF800204FF0010354BF22EA0802C4
:1006B00042EA0802CEF800200E680AF1010A36FA72
:1006C0000AF204F1040400F0A18003FA0AF816EA21
:1006D000080FF1D04E68664512DC122E56D8DFE8BE
:1006E00006F0350B454955555555555555555555F4
:1006F0005555554D510000BFD1F80C9046E000BF54
:100700004FF6FF72C1F2210296420FDC0022C1F2C5
:10071000110296421AD00022C1F21202964215D05E
:100720000022C1F22102964210D02FE00022C1F235
:10073000220296420AD00022C1F23102964205D02E
:100740000022C1F23202964220D100BF8A684AB12B
:10075000012A14BFC0F81480C0F810804FF00809B7
:1007600014E000BF4FF0040910E000BFCA6802F1B6
:1007700008090BE04FF0000908E000BFCA6802F169
:10078000040903E0CA6802F10C0900BF22460646CC
:10079000BAF1080F24BF203A043637680F25954078
:1007A00027EA050509FA02F22A433260CA79D2061D
:1007B0007FF582AF41F21803C4F202031A68AEF566
:1007C0007E7642F001021A601A6802F0010201927C
:1007D000019A2AF0030256F802B040F60002C4F271
:1007E0000102904210D040F60042C4F20102904251
:1007F0003FF422AF41F20002C4F20102009F904296
:1008000008BF022719E700BF002716E702B0BDE8BE
:10081000F08F0000C26802EA0103914341EA0341FC
:1008200001617047002A08BF090401617047000098
:1008300040F23030C2F200000068704740F2000021
:1008400040F23031C2F20000C2F2000100780A68C2
:10085000104408607047000080B542F20000C4F206
:100860000200016841F010010160032000F08EF8E1
:100870000F2000F005F800F027F8002080BD0000F0
:1008800070B540F20006C2F2000640F2080132786C
:10089000C2F200014FF47A730968B3FBF2F2044626
:1008A000B1FBF2F1084600F063FB0F2C4FF001059D
:1008B00008D838B94FF0FF3021460022002500F05B
:1008C00039F87460284670BD82B041F21800C4F255
:1008D00002000168022241F001010160016801F09B
:1008E000010101910199416841F0805141604068E6
:1008F00000F08050009000980420C4F201000168CC
:1009000062F31A61016002B070470000002848BF1E
:100910007047C1B200F01F00012202FA00F04EF24F
:100920000012CEF2000242EAD10121F00301086078
:100930007047000010B54EF60C5CCEF2000CDCF8EF
:100940000030C3F3022E8EF00704042C28BF0424C9
:10095000BEF103034FF0FF3E0EFA04F438BF00234C
:10096000A14399400EFA03F39A43114300F00F029A
:1009700000F160430901043A03F56443624400282E
:1009800048BF02F10C03197010BD00004EF60C5167
:10099000CEF200010A684FF6FF031A4060F30A2204
:1009A00042F0806040F0FD70086070472DE9F04330
:1009B00081B0002800F0858042F20008C4F20208ED
:1009C0000446D8F800000D4600F0070088420CD21B
:1009D000D8F8000020F007002843C8F80000D8F835
:1009E000000000F00700A8426BD1206841F2040922
:1009F0008107C4F2020917D5410705D5D9F80010BF
:100A000041F4E061C9F80010010705D5D9F80010DC
:100A100041F46051C9F80010D9F80010A26821F023
:100A2000F0011143C9F80010C00741D1D8F8000007
:100A300000F00700A8420CD9D8F8000020F0070009
:100A40002843C8F80000D8F8000000F00700A842CA
:100A500037D12068410707D5D9F80010E26821F4A2
:100A6000E0611143C9F80010000708D5D9F800006B
:100A7000216920F4605040EAC100C9F80000D9F8AB
:100A8000002002F00C00082841F20020C0F27A0099
:100A900050D143F28053C2F38341C0F60003595C46
:100AA000D2033BD440F60010C0F23D00484341E081
:100AB000606802280AD001282AD159F8041C890349
:100AC00008D4012001B0BDE8F08300BF59F8041C30
:100AD0008901F6D5D9F8001021F003010843C9F8BF
:100AE0000000FFF7A5FE064641F28837D9F800005E
:100AF000616800F00C00B0EB810F97D0FFF798FE13
:100B0000801BB842F2D9032001B0BDE8F08300BFDA
:100B100059F8041C8907D4D5DCE700BFD9F80020B8
:100B200043F27E53C2F34042C0F600039A5C48434E
:100B3000B0FBF2F0D9F8001043F26652C1F3031192
:100B4000C0F60002515C40F2080220FA01F140F2C6
:100B50000400C2F200000068C2F200021160FFF758
:100B60008FFE002001B0BDE8F083000040F20800D5
:100B700041F20401C2F20000C4F2020100680968F7
:100B800043F27652C1F30221C0F60002515CC84024
:100B90007047000040F2080041F20401C2F2000078
:100BA000C4F202010068096843F27652C1F3C2211F
:100BB000C0F60002515CC840704700002DE9F041CA
:100BC00082B0002868D00446007841F20006C007D1
:100BD000C4F2020625D0706800F00C0004281BD077
:100BE000706800F00C00082802D17068C00313D4AC
:100BF0006068002800F06881B0F5A02F00F07C81CB
:100C0000B0F5803F00F07C81306820F480303060A7
:100C1000306820F4802076E13068800301D5606878
:100C2000D0B32078800718D5706810F00C0F07D06B
:100C3000706800F00C0008286ED17068C0036BD497
:100C40003068800702D52069012825D130686169A4
:100C500020F0F80040EAC1003060207800071FD47F
:100C60002078400732D4E56995B1706800F00C0037
:100C7000082840F08F80012D0ED07068216A00F4A2
:100C800080328A4208D1616A00F47010884203D130
:100C9000002002B0BDE8F081012002B0BDE8F08183
:100CA000A069002862D00020C4F242200121C0F8CF
:100CB0008014FFF7BDFD0546706A800700F18C8047
:100CC000FFF7B6FD401B0228F6D92AE1F06910F0C3
:100CD000805808D1F06940F08050F061F06900F070
:100CE00080500090009847F20007C4F2000738686F
:100CF000C00529D4386840F480703860FFF798FD4B
:100D0000054600BF3868C0051ED4FFF791FD401BA3
:100D10006428F7D905E100BF2069002840F20000EF
:100D2000C4F2422000F0828001210160FFF780FDC3
:100D3000054600BF306880073FF588AFFFF778FDB4
:100D4000401B0228F6D9ECE0E068002800F0808023
:100D5000052800F09780012800F09880306A20F084
:100D600001003062306A20F0040092E00020C4F2FA
:100D700042200021C0F88014FFF75AFD054600BF4D
:100D8000706A80077FF56CAFFFF752FD401B0228A9
:100D9000F6D9C6E00027C4F2422700203866FFF7E4
:100DA00047FD022D05460BD13068800140F1BE8021
:100DB000FFF73EFD401B02284FF00300F4D968E71F
:100DC000306880017FF564AFFFF732FD401B0228D9
:100DD0004FF00300F4D95CE740F20800C2F20000D3
:100DE000006844F6D351C1F26201A0FB0101480A38
:100DF000019000BF00BF0198411E002801913FF4FF
:100E00002FAF00BF0198411E002801913FF428AF89
:100E100000BF0198411E002801913FF421AF00BF9F
:100E20000198411E00280191E4D119E700210160D9
:100E3000FFF7FEFC054600BF306880077FF50DAF69
:100E4000FFF7F6FC401B02284FF00300F4D920E71F
:100E5000306A20F001003062306A20F00400306215
:100E6000FFF7E6FC054641F2883700BF306A80078D
:100E700020D5FFF7DDFC401BB8424FF00300F5D949
:100E800007E700BF306A40F004003062306A40F08B
:100E900001003062FFF7CCFC054641F2883700BF05
:100EA000306A800706D4FFF7C3FC401BB842F7D96D
:100EB00037E000BFB8F1000F7FF4D5AEF06920F045
:100EC0008050F061CFE600BF306820F480303060A1
:100ED000306820F480203060FFF7AAFC054600BF90
:100EE000306880037FF59DAEFFF7A2FC401B6428AD
:100EF0004FF00300F4D9CCE6306840F48020306035
:100F0000306840F480303060FFF792FC054600BF47
:100F1000306880033FF585AEFFF78AFC401B6428EC
:100F2000F6D9032002B0BDE8F08100BF206AB0F519
:100F3000803F05D17168A26821F4003111437160CE
:100F40007168626A21F474111143084370600120D2
:100F50003866FFF76DFC0446306880013FF598AEB7
:100F6000FFF766FC001B02284FF00300F4D990E65F
:100F7000411E0020B0EB116F1CBF012070474EF2E4
:100F80001002CEF2000251604EF62351CEF2000163
:100F9000F0230B70072190601160704770470000CC
:100FA0007047000010B590F83C20012A4FF0020273
:100FB00033D080F83D200268D2F804E0D2F808C0AF
:100FC0000C682EF07003234340F2FF74C4F2000457
:100FD000A24253600ADCB2F1804F13D040F20043CA
:100FE000C4F200039A420DD011E000BF42F6004364
:100FF000C4F201039A4205D040F60003C4F2000394
:101000009A4204D149682CF0800319439160012170
:10101000002280F83D1080F83C20104610BD0000F2
:10102000002804BF0120704710B5044690F83D0029
:1010300028B9002084F83C00204600F067F8022020
:1010400084F83D00206840F2FF730268C4F2000398
:1010500042F6004C9842C4F2010C15DCB0F1804F0E
:101060001AD040F20041C4F20001884214D09842E4
:1010700018DCB0F1804F1DD040F20041C4F20001F5
:10108000884217D01AE000BF604505D040F6000145
:10109000C4F200018842EAD1A16822F070020A433A
:1010A0009842E6DD604505D040F60001C4F200013B
:1010B000884203D1216922F440720A43A36922F0D5
:1010C0008001D4F804E0E268194360450160C2621F
:1010D000C0F828E002D16169CCF8301001214161EB
:1010E000002084F8461084F83E1084F83F1084F8FD
:1010F000401084F8411084F8421084F8431084F8BA
:10110000441084F8451084F83D1010BD10B582B02D
:10111000006840F2FF71C4F20001884218DCB0F1AF
:10112000804F35D040F20041C4F2000188422DD1F9
:1011300041F21C00C4F2020001681D2441F00201CA
:101140000160006800F00200019001983EE000BFDD
:1011500040F60001C4F20001884229D042F6004165
:10116000C4F20101884211D141F21C00C4F2020014
:1011700050F8041C192441F4006140F8041C50F894
:10118000040C00F40060019001981FE002B010BD53
:1011900041F21C00C4F2020001681C2441F001016C
:1011A0000160006800F00100019001980EE000BFAE
:1011B00041F21C00C4F2020001681E2441F0040147
:1011C0000160006800F004000190019820460121B0
:1011D0000022FFF7AFFB204602B0BDE81040FFF74A
:1011E00095BB000090F83D1001291CBF01207047FD
:1011F000022180F83D10006840F2FF72C168C4F21D
:101200000002904241F00101C16009DCB0F1804F61
:1012100012D040F20041C4F2000188420CD012E02A
:1012200042F60041C4F20101884205D040F60001B7
:10123000C4F20001884206D1816801F00701062945
:1012400004BF00207047016841F0010101600020E7
:10125000704700000146006841F21113C26822F095
:101260000102C260026A1A4204D00122002081F801
:101270003D207047026A40F244431A42F5D10268A9
:1012800022F0010202600122002081F83D20704717
:1012900080B590F83C20012A4FF0020200F0C28095
:1012A00080F83D20D0F800C04FF67772DCF80830A7
:1012B00023EA0202CCF808200B684F2B28DC1F2BF6
:1012C00044DD202B45D0302B43D0402B40F0AC8068
:1012D000D1F804E0C968DCF82030DCF8202022F0E6
:1012E0000102CCF82020DCF8182022F0F00242EABB
:1012F000011123F00A0242EA0E02CCF81810CCF8D1
:101300002020DCF8081041F0470121F0300180E096
:101310006F2B27DDB3F5005F48D0B3F5805F7AD03F
:10132000702B40F08180D1E901E3C968DCF8082026
:1013300043EA0E0322F47F4243EA01211143CCF831
:101340000810DCF8081041F0770162E00BB1102BB7
:101350006AD1DCF8081021F07001194341F007014F
:1013600057E000BF502B35D0602B5DD1D1F804E0A1
:10137000C968DCF82030DCF8202022F01002CCF81C
:101380002020DCF8182022F4704242EA013123F0D8
:10139000A00242EA0E12CCF81810CCF82020DCF89B
:1013A000081041F0670121F0100132E0D1E901E3BA
:1013B000C968DCF8082043EA0E0322F47F4243EABE
:1013C00001211143CCF80810DCF8081041F48041E9
:1013D0001FE000BFD1F804E0C968DCF82030DCF879
:1013E000202022F00102CCF82020DCF8182022F086
:1013F000F00242EA011123F00A0242EA0E02CCF89E
:101400001810CCF82020DCF8081041F0570121F02A
:101410002001CCF808100022012180F83D100021A5
:1014200080F83C10104680BD0122F5E770470000AF
:1014300010B5016804460869800744BFC8685FEAC0
:10144000807039D40869400744BFC8685FEA4070BB
:101450003ED40869000744BFC8685FEA007045D4FD
:101460000869C00644BFC8685FEAC0604AD408691A
:10147000C0071CBFC8685FEAC07051D10869000688
:1014800044BFC8685FEA006052D40869400644BFA0
:10149000C8685FEA406053D40869800646BFC868E0
:1014A0005FEA806010BD6FF0200220460A61BDE84F
:1014B0001040FFF775BD00BF6FF00200086101200A
:1014C00020778869800743D02046FFF7AFFF45E0CB
:1014D0006FF00400086102202077886910F4407FD3
:1014E00040D02046FFF7A2FF42E000BF6FF00800A7
:1014F000086104202077C86980073DD02046FFF7A7
:1015000095FF3FE06FF01000086108202077C86960
:1015100010F4407F3AD02046FFF788FF3CE000BF40
:101520006FF001000861204600F03EF82168A5E751
:101530006FF0800008612046FFF730FD2168A4E7C6
:101540006FF040000861204600F068F82168A3E7CA
:10155000204600F025F8204600F024F821680020FD
:1015600020776FE7204600F01BF8204600F01AF8BD
:101570002168002020776CE7204600F011F8204613
:1015800000F010F821680020207769E7204600F07D
:1015900007F8204600F006F821680020207766E76B
:1015A0007047000070470000B0B540F200450446A7
:1015B000C4F20005006805F59431884212D0B0F1FC
:1015C000804F19D0A84221D005F58061884218BF0C
:1015D000B0BD40F25810C2F200003830BDE8B04053
:1015E000FEF7F2BE40F2E800C2F20000FEF7ECFEA9
:1015F0002068B0F1804FE5D140F2E800C2F200006F
:101600003830FEF7E1FE2068A842DDD140F25810E4
:10161000C2F20000FEF7D8FE2068D5E77047000050
:101620007047000070470000B0B582B00446006803
:101630000168C368426901F02F05202D03F02005E1
:1016400006D12DB1204602B0BDE8B04000F0F6BE94
:101650005FEA017C1EBF02F0010E03F4907212EBF0
:101660000E0253D1226B012A05D111F0100218BFCE
:1016700013F0100236D10A0622D513F080021FD0D3
:1016800094F8411021293FD1A168B1F5805F03D1C1
:101690002169002900F07082216A4A1C22620978BF
:1016A0004160E18C01390A04E1842DD1C16821F047
:1016B0008001C160C16841F04001C16002B0B0BDAD
:1016C000490621D513F040011ED0C16821F0400128
:1016D000C1602021204684F8411002B0BDE8B0402E
:1016E00000F064BB00210191016801914168019102
:1016F00001994069400613D4A08DE18DE28D002A46
:1017000018BF884240F0BA8102B0B0BDCA0718BF06
:1017100013F4807240F0B6804A0700F1B980BEE051
:10172000E06B016849688AB2002AEDD0A38D9A4225
:10173000EAD2E1858069202800F09C80206850E88A
:10174000030F216820F4807041E80302DAB12068B9
:1017500050E8030F216820F4807041E8030292B141
:10176000206850E8030F216820F4807041E80302EC
:101770004AB1206850E8030F216820F4807041E8E6
:101780000302002ADAD1206850E8050F216820F012
:10179000010041E80502DAB1206850E8050F216830
:1017A00020F0010041E8050292B1206850E8050FE1
:1017B000216820F0010041E805024AB1206850E8A4
:1017C000050F216820F0010041E80502002ADAD166
:1017D000206850E8050F216820F0400041E805022C
:1017E000DAB1206850E8050F216820F0400041E898
:1017F000050292B1206850E8050F216820F04000F2
:1018000041E805024AB1206850E8050F216820F040
:10181000400041E80502002ADAD1202084F8420085
:1018200000202063206850E8030F216820F010009A
:1018300041E80302DAB1206850E8030F216820F084
:10184000100041E8030292B1206850E8030F2168BC
:1018500020F0100041E803024AB1206850E8030F6D
:10186000216820F0100041E80302002ADAD1E06B81
:10187000FEF744FE02206063A08DE18D401A81B224
:10188000204674E1626C42F0010262644A0706D5A8
:10189000BEF1000F03D0626C42F0020262648A075C
:1018A00006D5BEF1000F03D0626C42F00402626400
:1018B000BCF1000F09D545EA0E02B2FA82F25209D4
:1018C00003D1626C42F008026264626C002A3FF449
:1018D0001BAF11F0200118BF002D03D0204600F0EF
:1018E000ADFD20684069616C00F0400001F0080126
:1018F000401800F0B58000BF206850E8030F216851
:1019000020F4907041E80302BAB3206850E8030F56
:10191000216820F4907041E8030272B3206850E817
:10192000030F216820F4907041E803022AB3206875
:1019300050E8030F216820F4907041E80302002A68
:10194000DAD11AE0206850E8050F216820F0010084
:1019500041E80502DAB1206850E8050F216820F05F
:10196000010041E8050292B1206850E8050F2168A6
:1019700020F0010041E805024AB1206850E8050F57
:10198000216820F0010041E80502002ADAD1206B2D
:10199000012824D1206850E8030F216820F01000AE
:1019A00041E80302DAB1206850E8030F216820F013
:1019B000100041E8030292B1206850E8030F21684B
:1019C00020F0100041E803024AB1206850E8030FFC
:1019D000216820F0100041E80302002ADAD120201B
:1019E00084F84200002020632068406940063FD50B
:1019F000206850E8050F216820F0400041E805020A
:101A0000DAB1206850E8050F216820F0400041E875
:101A1000050292B1206850E8050F216820F04000CF
:101A200041E805024AB1206850E8050F216820F01E
:101A3000400041E80502002ADAD1E06BC0B142F271
:101A40003141C0F600014163FEF77CFD00283FF400
:101A50005BAEE06B416B02B0BDE8B040084700BF31
:101A60002046FFF7DFFD0020606402B0B0BD00BF7C
:101A7000204602B0BDE8B040FFF7D4BD401A21684F
:101A800051E8031F226821F4907142E80313DBB18F
:101A9000216851E8031F226821F4907142E8031382
:101AA00093B1216851E8031F226821F4907142E844
:101AB00003134BB1216851E8031F226821F4907190
:101AC00042E80313002BDAD1216851E8051F226890
:101AD00021F0010142E80513DBB1216851E8051F3F
:101AE000226821F0010142E8051393B1216851E811
:101AF000051F226821F0010142E805134BB121685E
:101B000051E8051F226821F0010142E80513002B6E
:101B1000DAD1202184F8421000212163216851E8A4
:101B2000031F226821F0100142E80313DBB1216892
:101B300051E8031F226821F0100142E8031393B11A
:101B4000216851E8031F226821F0100142E80313C5
:101B50004BB1216851E8031F226821F0100142E8CF
:101B60000313002BDAD1022281B22046626302B055
:101B7000BDE8B040FFF754BD216A31F8022B6FF386
:101B80005F22426021628CE5002804BF012070477B
:101B900010B5044690F8410028B9002084F84000B0
:101BA000204600F063F8242084F841002068D4E93E
:101BB0000212C36823F40053C360036923F4405343
:101BC0001A430261D4E904231143C268194341F264
:101BD0000C639A431143C1604169A26921F44071C9
:101BE000114343F60002C4F201029042416103D066
:101BF000FEF7BCFF02E000BFFEF7CCFF62681921D0
:101C000048439100B0FBF1F048F21F51C5F2EB11CF
:101C1000A0FB01235A094FF69C73C0F6FF7302FB29
:101C20000300322303EB0010A0FB0101F02303EAC1
:101C30005113206803EB0212C1F343111144816078
:101C4000016921F490410161416921F02A0141615A
:101C5000C16841F40051C16000202021606484F813
:101C6000411084F84210606310BD000070B586B06A
:101C700040F60004C4F20104006804F54051002657
:101C80008842049602D006B070BD00BF41F2180031
:101C9000C4F20200016802AD41F4804101600168B4
:101CA00001F4804101910199016841F00401016052
:101CB0000068294600F00400019001984FF400707C
:101CC000029002200390032005902046FEF794FC2A
:101CD0004FF48060CDE90206204629460496FEF7BF
:101CE0008BFC252000210022FEF724FE2520FEF794
:101CF0000DFE06B070BD000090F84230202B1CBFD6
:101D00000220704700294FF0010318BF002A01D1BB
:101D10001846704700230363816222218285C285B1
:101D2000436480F842100169006819B1C16841F448
:101D30008071C1604169002341F001014161C168C6
:101D400041F02001C16018467047000070B500687E
:101D500043F60001C4F20101884218BF70BD40F291
:101D60007006C2F20006307896F86C10421CD3B2AE
:101D70003044022B327041700DD37078B47801F08A
:101D80001FFB0546204601F01BFB0146284600F0DC
:101D900073F90020307040F2E82006F16C01C2F2C5
:101DA00000000122BDE87040FFF7A6BF70470000A9
:101DB000FEE700002DE9F04784B041F21800C4F2BC
:101DC0000200016840F6000441F020010160016852
:101DD000C4F2010401F02001009100990168002281
:101DE00041F004010160016841F6CC0601F00401F4
:101DF0000091009901684FF0000941F0080101606D
:101E0000006841F6CC0100F00800009000982046E0
:101E1000FEF708FD04F5806528464FF44061002276
:101E20004FF44068FEF7FEFC00966E464FF0010A44
:101E3000022720463146CDE901A90397FEF7DCFBD6
:101E400028463146CDE9008ACDE90297FEF7D4FB5A
:101E500004B0BDE8F087000080B586B040F2C8103D
:101E600042F600420021C2F20000C4F20102472300
:101E70004FF47A7C4FF0800E0591CDE90311CDE946
:101E80000011C0E90023C0E9021CC0E90411C0F838
:101E900018E0FFF7C5F8002818BFFEF729FB4FF43C
:101EA0008050029040F2C810C2F2000002A9FFF771
:101EB000EFF9002818BFFEF71BFB40F2C810C2F272
:101EC00000006946FFF76EF8002818BFFEF710FB08
:101ED00006B080BD80B586B040F210200021C2F26D
:101EE00000004FF47A7C0591CDE90311CDE9001192
:101EF0004FF080422323C0E9021C01618021C0E928
:101F000000238161FFF78CF8002818BFFEF7F0FA74
:101F10004FF48050029040F21020C2F2000002A95B
:101F2000FFF7B6F9002818BFFEF7E2FA40F21020DA
:101F3000C2F200006946FFF735F8002818BFFEF727
:101F4000D7FA06B080BD000080B586B040F25820B8
:101F50000021C2F2000040F200424FF47A7C059169
:101F6000CDE90311CDE90011C4F200022323C0E939
:101F7000021C01618021C0E900238161FFF750F854
:101F8000002818BFFEF7B4FA4FF48050029040F2D8
:101F90005820C2F2000002A9FFF77AF9002818BF02
:101FA000FEF7A6FA40F25820C2F200006946FEF79A
:101FB000F9FF002818BFFEF79BFA06B080BD0000AD
:101FC00080B586B040F2A0200021C2F2000040F6A9
:101FD00000024FF47A7C0591CDE90311CDE900119F
:101FE000C4F200022323C0E9021C01618021C0E980
:101FF00000238161FFF714F8002818BFFEF778FA74
:102000004FF48050029040F2A020C2F2000002A9DA
:10201000FFF73EF9002818BFFEF76AFA40F2A02049
:10202000C2F200006946FEF7BDFF002818BFFEF7A8
:102030005FFA06B080BD000080B540F2E82043F6AC
:102040000001C2F20000C4F2010100234FF00C0CA9
:102050004FF4E13280E80E00C0E90333C0E905C364
:10206000C361FFF791FD002808BF80BDBDE8804037
:10207000FEF73EBAFEE700002DE9F04F85B040F2D2
:10208000700BC2F2000B0E46DBE90114029001F066
:10209000F5F901F041F90546CBF814003046214628
:1020A000039601F0EBF901F037F90446CBF818007C
:1020B000284600F010FD40F20009C4F22909002270
:1020C0004B4682460F4600F031FD00F0A7FC04901D
:1020D000CBF81C00204600F0FEFC00224B460446D4
:1020E0000D4600F023FD00F099FC48F60006C4F20E
:1020F00063068146CBF8200020462946002233465D
:1021000000F014FD04468846504639460022334606
:1021100000F00CFD2246434606460F4600F07CFACE
:1021200000F07CFC0546CBF8440020464146324690
:102130003B4600F0DFFE00F071FC049F0446CBF844
:1021400048002846CBE91379019501F021F940F2C6
:102150000C01C2F200010E68314601F01BF820F0BC
:10216000004A2046CBF824A001F012F9314601F0D4
:1021700011F820F000443846CBF8284001F008F967
:10218000314601F007F820F000484846CBF82C8093
:1021900001F0FEF8314600F0FDFF20F0004550460A
:1021A0003146CBF8305000F0F5FF20F000492046D2
:1021B0003146CBF8349000F0EDFF20F00047404668
:1021C0003146CBF8387000F0E5FF20F00044284697
:1021D0003146CBF83C4000F0DDFF40F2E801C2F2AE
:1021E0000001497820F000400129CBF84000CBE9FC
:1021F0001597CBF85C40CBF8600000F0868040F289
:102200002010C2F20000407801287ED040F2581021
:10221000C2F200004078012877D040F29010C2F25C
:1022200000004078012870D0484601F091F804463B
:10223000504601F08DF8074640F2E8000199C2F2DD
:102240000000224623460097FEF70AF8DBF8380024
:10225000DBF82840DBF84850DBF8586001F078F8EC
:102260000746304601F074F80646204601F070F843
:10227000044640F22010C2F2000029463A46334696
:102280000094FDF7EDFFDBF83C00DBF82C40DBF8B9
:102290004C50DBF85C6001F05BF80746304601F01B
:1022A00057F80646204601F053F8044640F258100D
:1022B000C2F2000029463A4633460094FDF7D0FFAB
:1022C000DBF84000DBF83040DBF85050DBF86060B2
:1022D00001F03EF80746304601F03AF8064620463F
:1022E00001F036F8044640F29010C2F20000294690
:1022F0003A4633460094FDF7B3FF02990398CBF8B2
:102300000410CBE90201CBF8100005B0BDE8F08F56
:10231000FEE70000704700007047000082B040F206
:10232000E80840F60007C2F20008C4F201070826D8
:102330004046394604223B460096FEF73BF840F201
:102340002015C2F2000540262846394680223B4629
:102350000096FEF72FF840F25816C2F200064FF42E
:102360008054304639464FF400623B460094FEF7F5
:1023700021F807F5806140F29017C2F200074FF490
:10238000806438464FF400620B460094FEF712F862
:1023900040F2C811C2F200014046FEF713F840F2C5
:1023A0001021C2F200012846FEF70CF840F2582135
:1023B000C2F200013046FEF705F840F2A021C2F259
:1023C00000013846FDF7FEFF40F27000C2F2000047
:1023D00040F2E825002100F16C04C2F20005C0E9DA
:1023E0001911C0E90111C0E9031100BF28462146B7
:1023F0000122FFF781FCF9E7FEF720BA70470000E1
:1024000040F2C810C2F20000FFF712B840F21020EC
:10241000C2F20000FFF70CB840F25820C2F20000F0
:10242000FFF706B840F2A020C2F20000FFF700B8A4
:10243000406A0021C185C184FFF7F4B881B090F8EB
:102440004210222921D183680246B3F5805F09D169
:1024500052F8281F52F8183C002B63D003685B68C1
:102460000AE000BF52F8281F13B90369002BF5D00A
:1024700003685B6803F07F030B7011680131116022
:10248000C18D01390A04C18502D001B0704700BF77
:102490000168CA6822F02002CA60CA6822F4807209
:1024A000CA604A6922F001024A61202180F8421084
:1024B00000214163026B012A3CD10163016851E8AC
:1024C000031F026821F0100142E80313DBB1016829
:1024D00051E8031F026821F0100142E8031393B191
:1024E000016851E8031F026821F0100142E803135C
:1024F0004BB1016851E8031F026821F0100142E866
:102500000313002BDAD101680A68D20606D500222F
:1025100000920A680092496800910099818D01B08B
:10252000FFF77EB8026852686FF35F2221F8022B32
:102530008162A5E701B0FFF709BC000040F2E82086
:10254000C2F20000FFF770B8FEE7000090B0FEF79F
:1025500083F900240120CDE90B44CDE9094406901C
:102560000A904FF4E0104FF4803102250F9006A836
:10257000CDE90714CDE90D51FEF720FB20B1EFF3B3
:10258000108072B6FEE700BF0F20CDE901054FF4C1
:102590008060CDE9040401A802210394FEF706FA45
:1025A00020B1EFF3108072B6FEE700BFFFF702FC28
:1025B000FFF752FCFFF78EFCFFF7C6FCFFF700FDAC
:1025C000FFF73AFDFFF7AAFEFEE72DE9F0410646C8
:1025D0000F4600F0A9FB041E0D4618BF012028433A
:1025E00020F00040C0F17F6000F1E040C00F0ED04D
:1025F000301C18BF0120384320F00040C0F17F603C
:1026000000F1E040C00F04BF0120FDF7E5FD2046CA
:102610002946BDE8F081000010B591EA030F48BFDC
:1026200083F0004300F16E84841A71EB030C05D231
:10263000121943EB0C03001B61EB0C014FEA115420
:10264000A4EB135CDFF81CE11EEA430F18BF9EEAFF
:10265000445F00F0748021EA045123EA0E0343F43E
:102660008013DCF1200E32D322FA0CFE10EB0E00A8
:1026700023FA0CFE41EB0E01CCF1200E03FA0EFE04
:1026800010EB0E00CCF1200E51F10001B1F5801FCE
:1026900032D201EB045112FA0EF2BDE8104058BFDD
:1026A0007047401C38BF5FEA420218BF70470028DD
:1026B00014BF20F0010041F100014FEA410313F57E
:1026C000001F38BF7047A1F1C04100F027BB012AAD
:1026D00043EB0302ACF1200CDCF11F0E32BF4FF0D4
:1026E000000E23FA0CF310EB030041EB0451B4EBA2
:1026F000115FD0D0A1EB045101F58011490801EB25
:1027000004515FEA30000ED350F1000038BF12FAD6
:102710000EFE08D1BDE81040C9E7401C38BF5FEA93
:102720004202CAD1C3E7BDE810404FEA410313F5A6
:10273000001F38BF7047A1F1C04100F0EFBA9EEA18
:10274000445F08D011EA5E0FBDE8104004BF01F0FD
:10275000004100207047BDE8104070B500F090FACD
:1027600064FBBE3E0000E0FF2DE9C04130B4DFF85D
:10277000A4C23CEA111418BF3CEA131400F0ED8027
:102780001CEA111481EA030544EAD57418BF1CEA57
:10279000131500F0C880A4EB050404F17F7404F560
:1027A00000344FF0004545EAC12145EAC32341EA20
:1027B000505143EA52534FEAC0204FEAC222994295
:1027C00008BF904200F09D804FEA13650FF2441657
:1027D000765D4FEA134506FB05F7C7F1807706FBE8
:1027E00007F74FEAD737A7FB03687642A7FB06CE69
:1027F000C8F5803838BFA8F1010807FB08E6A6FB3A
:10280000028C4FF0000EE6FB03CEDCF1000CCEF1A3
:10281000004E38BFAEF1010EA6FB0C584FF000077A
:10282000E6FB0E87A1FB08C6A0FB07CE16EB0E0643
:102830004FF0000545F10005E1FB076515F1E04E9D
:102840007EBFA4F580345FEA46066D4116F180072D
:1028500045F100054FEA172747EA05674FEA1525B6
:102860004FEA0666A6F1DE46B6F1805F20D938460B
:1028700005EBC47124F0010C01EB0C11BCF1FE6FEF
:1028800002D8F0BCBDE8008124425CBF01F5801E87
:102890009EEAC47F02D4F0BCBDE80081244200F16E
:1028A0003980A1F1C041F0BCBDE8004100F036BA6A
:1028B0004FEAD02040EA41504FEAD1214FEAD222DC
:1028C00042EA43524FEAD323A7FB028607FB036683
:1028D00005FB02661EEA0E0F58BFA6EB0056B6EBCC
:1028E00000564FEA520E4EEAC37E18EB0E0E56EB20
:1028F000530EBCD518EB02085E417F1C55F1000554
:10290000B5E74FF480154FF000074FF000064FF089
:102910000008ACE701F1C04101F000414FF00000B8
:10292000F0BCBDE800810CEA131511EA0C1F00D0C1
:102930000CE013EA0C1F00F026804FF0000081EA43
:10294000030101F00041F0BCBDE80081F0BCBDE82E
:10295000004181EA030100F0E1B9F0BCBDE80041AB
:1029600070B500F08DF900BF097EFC3E00F007B89D
:102970004FF0000081EA030101F00041704781EA55
:10298000030100F0CBB9F0BCBDE8004122494FF093
:1029900000007047FFFDFBF9F7F5F4F2F0EEEDEB08
:1029A000E9E8E6E4E3E1E0DEDDDBDAD8D7D5D4D34D
:1029B000D1D0CFCDCCCBCAC8C7C6C5C4C2C1C0BF99
:1029C000BEBDBCBBBAB9B8B7B6B5B4B3B2B1B0AF9F
:1029D000AEADACABAAA9A8A8A7A6A5A4A3A3A2A183
:1029E000A09F9F9E9D9C9C9B9A999998979796953E
:1029F00095949393929191908F8F8E8E8D8C8C8BDA
:102A00008B8A898988888787868585848483838261
:102A1000828181800000FF070000F87F4FEA4103B8
:102A20004FEA5353A3F58063D3F11E03C8BFD3F11C
:102A3000210C0CDD4FF0004242EAC12242EA505222
:102A400032FA03FC8CEAE17CACEBE1707047102BAE
:102A5000C4BF0020704703F5787CBCF1FF3F04D071
:102A60006FF0004282EA2100704770B500F008F96B
:102A70004992248000207047F2E700004FEA11538A
:102A8000A3F58063D3F11E03A8BFD3F1200C08DBAC
:102A90004FF0004242EAC12252EA505232FA03F0A9
:102AA000704709420BD4102BC4BF0020704703F5B8
:102AB000787CBCF1FF3F05D04FF0FF3070474FF0FE
:102AC0000000704770B500F0DBF800BF4992248029
:102AD00000207047F0E710F0004248BF4042B0FAD3
:102AE00080F310FA03F10AD0C3F11D0303F58063EC
:102AF00002EB03524FEA415002EBD12170474FF0F5
:102B000000007047B0FA80F310FA03F10AD0C3F165
:102B10001D0303F580634FEA03524FEA415002EB75
:102B2000D12170474FF000007047000070B5DFF80A
:102B300048C11CEA111E1EBF1CEA13159EEA0C0FA9
:102B400095EA0C0F00F06F8081EA03044EEAD47E10
:102B5000AE4421EA4C1123EA4C1341F4801143F4B2
:102B60008013AEF17F7EA1FB024CA0FB03653619FA
:102B700055EB0C05A1FB034C4CF10003A0FB021C20
:102B800016EB0C06654153F10003094218BF46F0ED
:102B9000010613F4007F0BD14FEA03314FEA0530F1
:102BA00041EA155140EA165034036FF003020AE07F
:102BB0004FEAC3214FEAC52041EA555140EA565039
:102BC000F4026FF0020202EB2E4201EB025585EA9D
:102BD000CE710AD05FEA440C18BF24F0004450F1D3
:102BE000000041F1000120EAD47040F2FE7C624511
:102BF00000D270BDA84214BF4FF080444FF0404453
:102C0000002E08BF0024BEF1806FA8BFA1F1C04113
:102C1000BDE8704080F2828001F1C04101F00041C6
:102C20004FF0000070470CEA13159EEA0C0F18BF16
:102C300095EA0C0F06D081EA030E4FF000000EF06B
:102C4000004170BD00F01CF88900013E00F007B89B
:102C500000F009B84FEA430C5FEA5C5C08D081EAF7
:102C6000030100F05BB84FEA410C5FEA5C5CF6D10F
:102C700002494FF0000070470000FF070000F87F96
:102C80000EF1020E2EF0030E5EF8046B364205D4F0
:102C9000012A43EB030515F5001F12D8012841EB6B
:102CA000010C1CF5001F0CD80ED14FEAD17C0CEBA7
:102CB0004C0C0CF1020C15F5001F08BF4CEBD37C3B
:102CC00004E04FF0080C01E04FEAD37C0CEB4C051C
:102CD00026FA05F606F00706B6F1040C06D20EEB4E
:102CE000860CBDE870404CF0010C6047DFE80CF04A
:102CF000090B02024FF00041A1F500214FF0000046
:102D000070BD19461046012851EB010418BFD4F5D7
:102D1000001484BF002001F0004170BD0808A0F538
:102D200000114FEA310170472DE9F04101F5801C97
:102D3000BCF5001FC0F2C3804FEA115C21EA0C51C0
:102D400041F480110CF1FD0C5FEA5C0C0CF5C07CC9
:102D500001D340004941890241EA905187023BA4D6
:102D60008E0EA45D0A0C04FB04F602FB06F6C6F107
:102D70004046A4FB0662F60D46EA422606FB06F430
:102D8000A4FB01235242C3F1404338BF5B1EA6FBA4
:102D900002420024E6FB0324D20B42EA4446A6FB8F
:102DA0000623A1FB02E2A3FB07E4A4184FF00002F4
:102DB00052F10002E3FB01426442C2F1404E38BFCF
:102DC000AEF1010EA6FB04234FF00002E6FB0E322B
:102DD000A2FB0346B6194FF0000454F10004E2FBD5
:102DE0000264A1FB06E6A4FB07E816EB08064FF019
:102DF000000858F10008E4FB01687642C8F1405829
:102E000038BFA8F10108A2FB06E4A3FB08E52D19D1
:102E10004FF0000454F10004E2FB0854A1FB05E666
:102E2000A7FB04E818EB06084FF0000656F1000671
:102E3000E1FB048618F1200556F10006A80940EAD6
:102E40008660B109A8F11B0808F03F08B8F10A0F25
:102E50001CD901EB0C51BDE8F08100BFFCF5EEE898
:102E6000E2DDD8D3CFCBC7C3C0BDB9B6B4B1AEAC29
:102E7000A9A7A5A3A19F9D9B9A9896959392908FA1
:102E80008D8C8B898887868584838281A0FB0068EE
:102E900000FB01F208EB4208B8EB872807D534188D
:102EA00058EB0104D5D5401C51F10001D1E7341A8B
:102EB00078EB0104CDD4401E71F10001C9E75FEA4F
:102EC0004C0C5FEA9C5C0DD105D301F000414FF042
:102ED0000000BDE8F081BDE8F04170B5FFF7D0FE1D
:102EE0006DDBFFBEBDE8F04101494FF000007047C7
:102EF0000000F87F10B591EA030F48BF83F000434C
:102F00003FF592AB841A71EB030C07D28CF0004CA6
:102F1000121943EB0C03001B61EB0C014FEA115437
:102F2000A4EB135CDFF8A4E11EEA430F18BF9EEA8E
:102F3000445F00F0B48021EA045123EA6E03524258
:102F4000C3EB6E0338BF5B1EDCF1200E25D322FAE3
:102F50000CFE10EB0E0043FA0CFE41EB0E01CCF11F
:102F6000200E03FA0EFE10EB0E00CCF1200E51F1F4
:102F7000000129D401EB045112FA0EF2BDE8104011
:102F800058BF7047401C1CBFB2F1004F704700286B
:102F90000CBF491C20F00100704712EB020E43EBFE
:102FA000030218BF4FF0010E4EEA4202ACF1200CB2
:102FB000DCF11E0E56D943FA0CFE10EB0E00CCF1DC
:102FC0001E0E51F1FF31D5D50EF1010E12FA0EFE93
:102FD000404141EB010101EB445C5FEA5C5C10D9CC
:102FE00001EB045110EBDE7038BFBEF1004FBDE8BD
:102FF000104018BF704700280CBF491C20F001008A
:10300000704734D24FEAD42C24F4006411F5001137
:103010001BD0B1FA81F20B3AA41AA41ED2F12003FC
:10302000914030FA03F31943904001EBCC7101EB6E
:103030000451002CBDE81040A8BF704701F1C04109
:1030400001F000414FF000007047B0FA80F310FA31
:1030500003F102D1BDE810407047E41A173C48055F
:10306000C90AE2E701EB0451BDE81040704749107E
:103070004FEA300001EB0451BDE8104002E04FF090
:10308000000170474A0008BF0042F8D0B2F5001FA7
:1030900028BF704701F000414FF0000070479EEAE2
:1030A000445F07D011EA5E0FBDE8104004BF002165
:1030B00000207047BDE8104070B5FFF7E1FD00BF8C
:1030C00040DFF63E104683F0004170470000E0FF0D
:1030D00090EA010F48BF81F0004100F1D681421A09
:1030E0003CBF801A89184FEAD052A2EBD1534FF05F
:1030F0007F4C1CEA410F18BF9CEA026F00F03B8036
:103100004FF0004C4CEA00204CEA012121FA03FC6C
:1031100010EB0C0C1ED202F1FF325FEA1C2040EBD8
:10312000C25038BF70471CF07F0F4FEA400C18BFE9
:10313000BCF17F4F38BF7047C3F12003994008BFEF
:1031400020F00100BCF17F4F38BF7047A0F1C040B4
:1031500000F08FB94FEA3C00000A40EBC25028BF94
:103160001CF0FF0F4FEA400CE6D018BFBCF17F4FB8
:1031700038BF7047EAE79CEA026F05D010EA5C0F9F
:1031800008BF00F00040704710B500F02CF900BFF8
:1031900064FBBE3E4FF47F0C1CEAD0121EBF1CEA3B
:1031A000D11392EA0C0F93EA0C0F00F0858090EA9D
:1031B000010F48BF42F4807240F4000C41F400005B
:1031C0002CF07F4120F07F4000B5A2EB030281424A
:1031D0000FF2081CACEB504E9EF800E0C0F100006E
:1031E0004FEA4E0E00FB0EFC38BF49004FEA2C1C84
:1031F0000CFB0EF34FEACE1E0EEB635E4FEA112C72
:103200000EFB0CFC4FEAC1214FEA1C5300FB0311DB
:1032100002F5FA024FEA112C0EFB0CFC4FEA0131C9
:103220004FEADC4C00FB0C1142EB2242C14228BFAA
:1032300009184CEB03335DF804EB10EB410143EB51
:10324000C250B2F57C0F38BF704729D512F0F00F8D
:103250001CBF00F1C04000F0004070470081828335
:103260008485868788898B8C8D8E8F919293959695
:1032700097999A9C9D9FA0A2A3A5A7A8AAACAEB01F
:10328000B2B3B5B7B9BCBEC0C2C5C7C9CCCED1D424
:10329000D7D9DCDFE2E6E9ECF0F3F7FAFE00000054
:1032A0004FEA400C0CF1807CBCF17E4F28BF704788
:1032B000B0F1C04000F0DDB80CEAD11390EA010F84
:1032C00048BF42F48072624538BF634507D213F4A9
:1032D0007F0F16D080EA010000F00040704710B563
:1032E00000F081F8097EFC3E00F005B880EA01009C
:1032F00000F00040704780EA010000F0004000F05C
:10330000B8B812F47F0F04BF0248704780EA01008A
:1033100000F0AFB80000C07F41000B0ED3F19E0259
:1033200008D950F400034FEA032323FA02F048BF00
:103330004042704710B500F056F800BF4992248013
:10334000002070476FF0004282EA200070470000C2
:10335000C10DD1F19E0206DB4FEA002343F000438A
:1033600023FA02F07047004207D54FEA4001B1F15D
:10337000FE4F02D24FF00000704710B500F033F856
:1033800049922480002070476FEA200070470000B7
:1033900010F0004148BF4042B0FA80F310FA03F247
:1033A000C3F19D030BD051EAC35101EB1220530628
:1033B00038BF704700F1010008BF20F001007047DE
:1033C000B0FA80F310FA03F2C3F19D030AD0D905D5
:1033D00001EB1220530638BF704700F1010008BF0F
:1033E00020F0010070470EF1020E2EF0030E5EF881
:1033F000044B244204D44FEA4102B2F17F4F11D86A
:103400004FEA4003B3F17F4F0CD80ED14FEAD07C86
:103410000CEB4C0C0CF1020CB2F17F4F08BF4CEBE3
:10342000D17C04E04FF0080C01E04FEAD17C0CEBBA
:103430004C0324FA03F404F00704B4F1040C06D29C
:103440000EEB840CBDE810404CF0010C6047DFE847
:103450000CF0070802024FF00040A0F5800010BDFC
:103460000846420018BFD2F1807288BF00F00040C9
:1034700010BDFF2141EAD050C005704790EA010F0E
:1034800048BF81F000413FF52AAE421A04D882F0CD
:103490000042A0EB020011444FEAD052A2EBD153FC
:1034A0004FF07F4C1CEA410F18BF9CEA026F4AD0D4
:1034B0004FF0004C4CEA00204CEA012121FA03FCB9
:1034C000B0EB0C0C0FD412F0FE0F36D05FEA4C00BC
:1034D0001DD5001240EBC25038BF70471CF03F0FA3
:1034E00018BF70470BE05FEA1C20A2F1010240EB1D
:1034F000C25038BF70471CF07F0F18BF7047C3F130
:103500002003994014BF401E20F0010070474FEA8D
:103510001223800808BF7047B0FA80FCA2EB0C02AF
:10352000CCF1280C60FA0CF093EA122F04BF00EBE8
:10353000C25070474FEAC3707047130A5FEADC104D
:1035400008BF7047F6E79CEA026F04D010EA5C0FF0
:1035500008BF0020704710B5FFF745FF40DFF63E7B
:1035600081F00040704700000000000000000102F0
:103570000304060708090000000001020304010219
:1035800002030405060708090A0B0C0D0E0F1010A4
:10359000B0350008000000201000000028010008DD
:1035A000C035000810000020280900004401000870
:1035B00001000000100000000024F4000000803F23
:04000005080000ED02
:00000001FF
