:020000040800F2
:10000000F807002089010008F5120008ED12000829
:10001000F112000845020008151300080000000056
:10002000000000000000000000000000FD120008B9
:100030004902000800000000F9120008011300083E
:10004000A3010008A3010008A3010008A301000800
:10005000A3010008A3010008A3010008A3010008F0
:10006000A3010008A3010008A3010008A3010008E0
:10007000A3010008A3010008A3010008A3010008D0
:10008000A3010008A3010008A3010008A3010008C0
:10009000A3010008A3010008A3010008A3010008B0
:1000A000A3010008A3010008A3010008A3010008A0
:1000B00009130008A3010008A3010008A301000818
:1000C000A3010008A3010008A3010008A301000880
:1000D000A3010008A3010008A3010008A301000870
:1000E000A3010008A3010008A301000800F002F822
:1000F00000F03AF80AA090E8000C82448344AAF188
:100100000107DA4501D100F02FF8AFF2090EBAE885
:100110000F0013F0010F18BFFB1A43F0010318473B
:100120001C2500003C250000103A24BF78C878C187
:10013000FAD8520724BF30C830C144BF04680C60ED
:10014000704700000023002400250026103A28BF35
:1001500078C1FBD8520728BF30C148BF0B60704739
:100160001FB51FBD10B510BD00F031F81146FFF7E7
:10017000F7FF01F0D1F800F04FF803B4FFF7F2FFFA
:1001800003BC00F057F800000948804709480047C1
:10019000FEE7FEE7FEE7FEE7FEE7FEE7FEE7FEE737
:1001A000FEE7FEE704480549054A064B7047000094
:1001B00005130008ED000008F8010020F8070020F2
:1001C000F8030020F8030020704770477047754619
:1001D00000F02CF8AE4605006946534620F00700B3
:1001E000854618B020B5FFF7DDFFBDE820404FF091
:1001F00000064FF000074FF000084FF0000BAC4630
:10020000ACE8C009ACE8C009ACE8C009ACE8C0097A
:1002100021F007018D46704710B50446AFF300800A
:100220002046BDE81040FFF7A8BF00000048704717
:100230001000002001491820ABBEFEE72600020096
:1002400070470000FEE70000704700002DE9F04F06
:1002500082B00E68002E00F0038141F20042C4F229
:100260000102042340F2004E904208BF03234FF6E0
:10027000FF7CC4F2010E009300240123C1F2100C94
:100280004FF0000A4FF0000949E000BF012704F0D9
:100290000C030F229A402BEA020207FA03F34FEAFB
:1002A0009A051A4346F82520D1F804B040F20C45CF
:1002B0005FEACB22DEF8082054BF22EA080242EAB5
:1002C0000802C4F20105CEF808202A685FEA8B23F1
:1002D00054BF22EA080242EA08022A605FEA8B332E
:1002E000DEF8042054BF22EA080242EA08025FEA6C
:1002F000CB33CEF80420DEF800204FF0010354BFCA
:1003000022EA080242EA0802CEF800200E680AF14A
:10031000010A36FA0AF204F1040400F0A18003FA9B
:100320000AF816EA080FF1D04E68664512DC122E64
:1003300056D8DFE806F0350B454955555555555506
:10034000555555555555554D510000BFD1F80C9098
:1003500046E000BF4FF6FF72C1F2210296420FDC69
:100360000022C1F2110296421AD00022C1F21202FA
:10037000964215D00022C1F22102964210D02FE001
:100380000022C1F2220296420AD00022C1F23102BA
:10039000964205D00022C1F23202964220D100BF1F
:1003A0008A684AB1012A14BFC0F81480C0F81080CE
:1003B0004FF0080914E000BF4FF0040910E000BF3F
:1003C000CA6802F108090BE04FF0000908E000BF1D
:1003D000CA6802F1040903E0CA6802F10C0900BF0F
:1003E00022460646BAF1080F24BF203A0436376881
:1003F0000F25954027EA050509FA02F22A433260E3
:10040000CA79D2067FF582AF41F21803C4F2020323
:100410001A68AEF57E7642F001021A601A6802F0A0
:1004200001020192019A2AF0030256F802B040F646
:100430000002C4F20102904210D040F60042C4F221
:10044000010290423FF422AF41F20002C4F20102E5
:10045000009F904208BF022719E700BF002716E758
:1004600002B0BDE8F08F0000002A08BF0904016156
:100470007047000040F2F410C2F2000000687047BC
:1004800040F2000040F2F411C2F20000C2F200019A
:1004900000780A68104408607047000080B542F296
:1004A0000000C4F20200016841F010010160032065
:1004B00000F08EF80F2000F005F800F027F800207B
:1004C00080BD000070B540F20006C2F2000640F2A6
:1004D00008013278C2F200014FF47A730968B3FB65
:1004E000F2F20446B1FBF2F1084600F043FB0F2C98
:1004F0004FF0010508D838B94FF0FF3021460022EF
:10050000002500F039F87460284670BD82B041F2D1
:100510001800C4F202000168022241F001010160EA
:10052000016801F0010101910199416841F0805198
:100530004160406800F08050009000980420C4F2B0
:100540000100016862F31A61016002B070470000A7
:10055000002848BF7047C1B200F01F00012202FA14
:1005600000F04EF20012CEF2000242EAD10121F078
:10057000030108607047000010B54EF60C5CCEF227
:10058000000CDCF80030C3F3022E8EF00704042CBC
:1005900028BF0424BEF103034FF0FF3E0EFA04F41B
:1005A00038BF0023A14399400EFA03F39A43114345
:1005B00000F00F0200F160430901043A03F56443BF
:1005C0006244002848BF02F10C03197010BD0000FE
:1005D0004EF60C51CEF200010A684FF6FF031A40A6
:1005E00060F30A2242F0806040F0FD7008607047BE
:1005F0002DE9F04381B0002800F0878042F2000826
:10060000C4F202080446D8F800000D4600F00700C6
:1006100088420CD2D8F8000020F007002843C8F820
:100620000000D8F8000000F00700A8426DD1206853
:1006300041F204098107C4F2020917D5410705D523
:10064000D9F8001041F4E061C9F80010010705D5A0
:10065000D9F8001041F46051C9F80010D9F8001021
:10066000A26821F0F0011143C9F80010C00743D17E
:10067000D8F8000000F00700A8420CD9D8F8000014
:1006800020F007002843C8F80000D8F8000000F068
:100690000700A84239D12068410707D5D9F80010D2
:1006A000E26821F4E0611143C9F80010000708D5A1
:1006B000D9F80000216920F4605040EAC100C9F86F
:1006C0000000D9F8001042F2004001F00C02042AA8
:1006D000C0F2F40058D0082A44D142F22C63C1F38E
:1006E0008342C0F600039A5CC90341D440F600106F
:1006F000C0F23D00504347E0606802280AD001285C
:100700002AD159F8041C890308D4012001B0BDE89E
:10071000F08300BF59F8041C8901F6D5D9F8001000
:1007200021F003010843C9F80000FFF7A3FE0646C5
:1007300041F28837D9F80000616800F00C00B0EB96
:10074000810F95D0FFF796FE801BB842F2D90320A7
:1007500001B0BDE8F08300BF59F8041C8907D4D567
:10076000DCE700BF41F20020C0F27A000CE000BFDD
:10077000D9F8001042F22A63C1F34041C0F60003E9
:10078000595C5043B0FBF1F0D9F8001042F21A6204
:10079000C1F30311C0F60002515C40F2080220FAD6
:1007A00001F140F20400C2F200000068C2F200024F
:1007B0001160FFF787FE002001B0BDE8F083000064
:1007C0002DE9F04182B0002868D00446007841F25B
:1007D0000006C007C4F2020625D0706800F00C00C5
:1007E00004281BD0706800F00C00082802D1706843
:1007F000C00313D46068002800F06881B0F5A02F12
:1008000000F07C81B0F5803F00F07C81306820F4FE
:1008100080303060306820F4802076E130688003DA
:1008200001D56068D0B32078800718D5706810F0C3
:100830000C0F07D0706800F00C0008286ED17068AB
:10084000C0036BD43068800702D52069012825D108
:100850003068616920F0F80040EAC100306020781B
:1008600000071FD42078400732D4E56995B170683D
:1008700000F00C00082840F08F80012D0ED0706829
:10088000216A00F480328A4208D1616A00F4701053
:10089000884203D1002002B0BDE8F081012002B0FF
:1008A000BDE8F081A069002862D00020C4F2422097
:1008B0000121C0F88014FFF7DDFD0546706A80074E
:1008C00000F18C80FFF7D6FD401B0228F6D92AE103
:1008D000F06910F0805808D1F06940F08050F06164
:1008E000F06900F080500090009847F20007C4F2D1
:1008F00000073868C00529D4386840F48070386033
:10090000FFF7B8FD054600BF3868C0051ED4FFF7E5
:10091000B1FD401B6428F7D905E100BF206900281C
:1009200040F20000C4F2422000F082800121016008
:10093000FFF7A0FD054600BF306880073FF588AF90
:10094000FFF798FD401B0228F6D9ECE0E06800288C
:1009500000F08080052800F09780012800F0988042
:10096000306A20F001003062306A20F0040092E02A
:100970000020C4F242200021C0F88014FFF77AFD65
:10098000054600BF706A80077FF56CAFFFF772FD08
:10099000401B0228F6D9C6E00027C4F242270020F7
:1009A0003866FFF767FD022D05460BD130688001E0
:1009B00040F1BE80FFF75EFD401B02284FF00300B0
:1009C000F4D968E7306880017FF564AFFFF752FD26
:1009D000401B02284FF00300F4D95CE740F2080006
:1009E000C2F20000006844F6D351C1F26201A0FBDC
:1009F0000101480A019000BF00BF0198411E002874
:100A000001913FF42FAF00BF0198411E00280191D2
:100A10003FF428AF00BF0198411E002801913FF428
:100A200021AF00BF0198411E00280191E4D119E7D0
:100A300000210160FFF71EFD054600BF30688007FA
:100A40007FF50DAFFFF716FD401B02284FF00300A6
:100A5000F4D920E7306A20F001003062306A20F0DB
:100A600004003062FFF706FD054641F2883700BFFB
:100A7000306A800720D5FFF7FDFC401BB8424FF0DD
:100A80000300F5D907E700BF306A40F00400306288
:100A9000306A40F001003062FFF7ECFC054641F29D
:100AA000883700BF306A800706D4FFF7E3FC401B9D
:100AB000B842F7D937E000BFB8F1000F7FF4D5AEE8
:100AC000F06920F08050F061CFE600BF306820F47C
:100AD00080303060306820F480203060FFF7CAFC3E
:100AE000054600BF306880037FF59DAEFFF7C2FC6E
:100AF000401B64284FF00300F4D9CCE6306840F482
:100B000080203060306840F480303060FFF7B2FC05
:100B1000054600BF306880033FF585AEFFF7AAFCAD
:100B2000401B6428F6D9032002B0BDE8F08100BF65
:100B3000206AB0F5803F05D17168A26821F40031C8
:100B4000114371607168626A21F4741111430843A2
:100B5000706001203866FFF78DFC04463068800124
:100B60003FF598AEFFF786FC001B02284FF003000C
:100B7000F4D990E6411E0020B0EB116F1CBF01209C
:100B800070474EF21002CEF2000251604EF6235131
:100B9000CEF20001F0230B700721906011607047C6
:100BA000704700007047000010B590F83C20012A03
:100BB0004FF0020233D080F83D200268D2F804E002
:100BC000D2F808C00C682EF07003234340F2FF7483
:100BD000C4F20004A24253600ADCB2F1804F13D089
:100BE00040F20043C4F200039A420DD011E000BF6E
:100BF00042F60043C4F201039A4205D040F60003D6
:100C0000C4F200039A4204D149682CF080031943CE
:100C100091600121002280F83D1080F83C201046B0
:100C200010BD0000002804BF0120704710B5044625
:100C300090F83D0028B9002084F83C00204600F0E0
:100C400067F8022084F83D00206840F2FF730268D4
:100C5000C4F2000342F6004C9842C4F2010C15DCC9
:100C6000B0F1804F1AD040F20041C4F20001884236
:100C700014D0984218DCB0F1804F1DD040F20041F2
:100C8000C4F20001884217D01AE000BF604505D0C9
:100C900040F60001C4F200018842EAD1A16822F0C6
:100CA00070020A439842E6DD604505D040F6000137
:100CB000C4F20001884203D1216922F440720A4340
:100CC000A36922F08001D4F804E0E268194360458A
:100CD0000160C262C0F828E002D16169CCF830102E
:100CE00001214161002084F8461084F83E1084F808
:100CF0003F1084F8401084F8411084F8421084F8C2
:100D0000431084F8441084F8451084F83D1010BD59
:100D100080B582B00068B0F1804F1CBF02B080BDCA
:100D200041F21C00C4F202000168002241F00101FE
:100D300001600068002100F00100019001981C2072
:100D4000FFF71AFC1C2002B0BDE88040FFF700BC92
:100D500090F83D1001291CBF01207047022180F846
:100D60003D10006840F2FF72C168C4F20002904278
:100D700041F00101C16009DCB0F1804F12D040F2B6
:100D80000041C4F2000188420CD012E042F600415A
:100D9000C4F20101884205D040F60001C4F200010E
:100DA000884206D1816801F00701062904BF0020AE
:100DB0007047016841F001010160002070470000A8
:100DC0000146006841F21113C26822F00102C260BC
:100DD000026A1A4204D00122002081F83D207047A7
:100DE000026A40F244431A42F5D1026822F001023D
:100DF00002600122002081F83D20704780B590F804
:100E00003C20012A4FF0020200F0C28080F83D2011
:100E1000D0F800C04FF67772DCF8083023EA0202FF
:100E2000CCF808200B684F2B28DC1F2B44DD202B2F
:100E300045D0302B43D0402B40F0AC80D1F804E0BB
:100E4000C968DCF82030DCF8202022F00102CCF860
:100E50002020DCF8182022F0F00242EA011123F0F1
:100E60000A0242EA0E02CCF81810CCF82020DCF876
:100E7000081041F0470121F0300180E06F2B27DDA1
:100E8000B3F5005F48D0B3F5805F7AD0702B40F0A7
:100E90008180D1E901E3C968DCF8082043EA0E0348
:100EA00022F47F4243EA01211143CCF80810DCF818
:100EB000081041F0770162E00BB1102B6AD1DCF829
:100EC000081021F07001194341F0070157E000BFFD
:100ED000502B35D0602B5DD1D1F804E0C968DCF827
:100EE0002030DCF8202022F01002CCF82020DCF8A2
:100EF000182022F4704242EA013123F0A00242EAB3
:100F00000E12CCF81810CCF82020DCF8081041F0B4
:100F1000670121F0100132E0D1E901E3C968DCF892
:100F2000082043EA0E0322F47F4243EA01211143E1
:100F3000CCF80810DCF8081041F480411FE000BF35
:100F4000D1F804E0C968DCF82030DCF8202022F079
:100F50000102CCF82020DCF8182022F0F00242EA4E
:100F6000011123F00A0242EA0E02CCF81810CCF864
:100F70002020DCF8081041F0570121F02001CCF8C6
:100F800008100022012180F83D10002180F83C105B
:100F9000104680BD0122F5E77047000010B50168DA
:100FA00004460869800744BFC8685FEA807039D486
:100FB0000869400744BFC8685FEA40703ED40869CA
:100FC000000744BFC8685FEA007045D40869C006DE
:100FD00044BFC8685FEAC0604AD40869C0071CBF44
:100FE000C8685FEAC07051D10869000644BFC8688C
:100FF0005FEA006052D40869400644BFC8685FEAEF
:10100000406053D40869800646BFC8685FEA8060C4
:1010100010BD6FF0200220460A61BDE81040FFF7C6
:10102000C1BD00BF6FF00200086101202077886910
:10103000800743D02046FFF7AFFF45E06FF0040084
:10104000086102202077886910F4407F40D0204654
:10105000FFF7A2FF42E000BF6FF008000861042024
:101060002077C86980073DD02046FFF795FF3FE015
:101070006FF01000086108202077C86910F4407FE5
:101080003AD02046FFF788FF3CE000BF6FF0010038
:101090000861204600F03EF82168A5E76FF0800067
:1010A00008612046FFF77CFD2168A4E76FF040004F
:1010B0000861204600F018F92168A3E7204600F0F7
:1010C00025F8204600F024F82168002020776FE7FB
:1010D000204600F01BF8204600F01AF82168002096
:1010E00020776CE7204600F011F8204600F010F859
:1010F00021680020207769E7204600F007F82046A5
:1011000000F006F821680020207766E770470000AD
:10111000704700002DE9F04F81B040F27007C2F235
:1011200000070068F969884202D001B0BDE8F08F7D
:101130007969012500917D61C56297F8008040F2D0
:10114000D4090026C2F200094FF0000BBD622AE06C
:10115000DAF84400DAF81C10B0EB510F24BFDAF8CB
:101160004400CAF82400DAF83C40DAF8300001F014
:1011700097F80146204600F0E5FE01F071F8CAF844
:1011800030000125DAF83C00DAF8341001F004F9F7
:1011900001F066F8CAF840004836B6F5907F0BF1CA
:1011A000010B00F0998005FA0BF414EA080FF3D054
:1011B0007878044252D009EB060ADAF84400DAF8EB
:1011C0001C1088421CD2DAF80C008047DAF8440080
:1011D0000130CAF84400DAF81800DAF814100844AC
:1011E000CAF81400DAF84400DAF81C1097F8008006
:1011F000884222BFCAF8205028EA040887F80080F5
:10120000DAF8240090B3DAF84400DAF81C10DAF8BF
:101210002420891A8842B5D3DAF83C40DAF838003D
:101220008000013001F03CF80146204601F0B4F89E
:10123000DAF8381004464FF0FF3000EB810001F07F
:101240002FF80146204600F015FFCAF83C00DAF8F6
:1012500038000138CAF8380094E700BF09EB0600EF
:10126000016C009A891A016496E700BFDAF8380029
:101270000130CAF83800DAF83C40DAF83C000146A0
:1012800000F060FEDAF8381005468800013001F001
:1012900007F80146284600F0EDFE0146204601F021
:1012A00047F9CAF83C00DAF83C40DAF8040000F0EC
:1012B000F7FF0146204600F0B5FE00287FF448AF56
:1012C000DAF8040000F0ECFFCAF83C00DAF8440059
:1012D000CAF824003CE700BF00F022FCF8690021B6
:1012E000416201B0BDE8F08F70470000FEE70000EA
:1012F000FEE70000FEE700007047000070470000B6
:10130000FFF7BEB87047000040F28C00C2F2000048
:10131000FFF744BEFEE7000094B0FFF7BFF80024DB
:101320000120CDE90F44CDE90D440A900E904FF411
:10133000E0104FF480314FF40032022513900AA8D8
:101340000B910C92CDE91151FFF73AFA20B1EFF36E
:10135000108072B6FEE700BF0F20CDE904054FF400
:101360008060CDE9070404A802210694FFF740F944
:1013700020B1EFF3108072B6FEE700BF41F2180013
:10138000C4F20200016840F6000A41F02001016049
:101390000168C4F2010A01F020010A910A9901686A
:1013A000012241F004010160016841F6CC0601F020
:1013B00004010A910A9901684FF0010841F00801FF
:1013C0000160006841F6CC0100F008000A900A981C
:1013D0005046FFF749F80AF5806528464FF440610A
:1013E00001224FF44069FFF73FF8CDE90A680AAEE1
:1013F00000270324504631460C970D94FEF726FF34
:1014000028463146CDE90A98CDE90C74FEF71EFF57
:1014100040F27004C2F200044FF08041204640F8D0
:101420001C1F47214FF6DC72C0E9011780210D9780
:10143000CDE90B77CDE90477C0E903278161FFF798
:10144000F1FB28B1EFF3108072B600BFFEE700BFDA
:101450004FF4805004F11C050A900AA92846FFF7B2
:10146000CDFC28B1EFF3108072B600BFFEE700BFDD
:1014700004A92846FFF798FB20B1EFF3108072B65D
:10148000FEE700BF40F2D40941F6594041F66941F8
:10149000C2F20009C0F60000C0F6000148F20002E6
:1014A000C9E914016068C4F23B5201230095C9E9FF
:1014B000122300BF21690191081AC8214143C4E9E0
:1014C0000201012000F014F994F800A0D9F82C00D2
:1014D0000AF0010BCBF1000500F0E2FE06461AF01F
:1014E000020005EA0605039040F0A2801AF004000D
:1014F000029040F0AE801AF008080BD0D9F8040131
:1015000000F0CEFE07462846394600F092FD00283E
:1015100008BF3D462846002100F076FDC0B9BBF16A
:10152000000F40F0BB800398002840F0C180029873
:10153000002840F0CB80B8F1000F09D0D9F80401A1
:1015400000F0AEFE0146284600F094FDC9F80C01FB
:10155000D9F8407041F2FF10C0F27A00D9F820208B
:10156000D9F88830D9F8D010874238BF3846BBF157
:10157000000F04BF41F2FF10C0F27A00054683421B
:1015800038BF1D46039E002E08BF05462E46A942C1
:1015900038BF0E4602980028D9F8180108BF2E4619
:1015A000B042354638BF0546B8F1000F08BF354692
:1015B000002A4FF00102A2614FF00002627004BFE6
:1015C0000022A261009EBBF1000F4FF0000203D089
:1015D000AF4204BF01226270D9F86870002F04BFC7
:1015E0000027A761039F1FB1AB4204BF02326270A4
:1015F000D9F8B030002B04BF0023A361029B1BB1BC
:10160000A94204BF04326270D9F8F810002904BF5F
:101610000021A161B8F1000F04D0A84204BF02F17B
:1016200008006070BAF1000F24D0E06928E000BF24
:10163000D9F8740000F034FE07462846394600F019
:10164000F8FC002808BF3D461AF0040002903FF461
:1016500052AFD9F8BC0000F023FE074628463946B1
:1016600000F0E7FC002808BF3D461AF008087FF4A8
:1016700045AF4FE73046FFF7A3FBE0690121C162A8
:101680006561C5623046A562FFF762FB207868BBE2
:1016900000202080019860600CE700BF284631469A
:1016A00000F0E8FCC9F83400039800283FF43FAF8D
:1016B000D9F8740000F0F4FD0146284600F0DAFC89
:1016C000C9F87C00029800283FF435AFD9F8BC0077
:1016D00000F0E6FD0146284600F0CCFCC9F8C40045
:1016E000B8F1000F7FF42AAF32E700BFFEE7000039
:1016F0002DE9F04F81B040F2D40500EBC004C2F2F6
:10170000000505EBC40A0E46DAF808108146F00F12
:1017100088470120012EB8BF4FF0FF30002ECAF8D5
:10172000180048BF764255F834004FF0010BCAF854
:101730001C6000F095FD0446CAF8100000F0B0FDF2
:10174000DAF80480054600204FF07E51CAE908000F
:10175000CAE90D10CAF844004046CAE90F5400F027
:101760009FFD294600F086FC00F0C0FB41F26F228D
:101770004AF2CA13CCF28302C3F6E57300F0B8FA5A
:1017800000F084FA0146044600F006FE0021CBF684
:10179000807100F0D7FB074620464FF0404100F033
:1017A000FBFD0146384600F065FC014600F0F4FD03
:1017B00000F056FD40F27002C2F2000213780BFAFC
:1017C00009F11943B6EB400FCAF82800117011D97E
:1017D00041000228A6EB010922D3411E023803284A
:1017E00001F0030724D200264FF0040B002F40F035
:1017F0008980CFE0042E15D34FF0FF306FF0010148
:1018000000EB560001EB5601032900F0030880F0BD
:10181000CB8000240427B8F1000F40F02D8174E143
:101820000026B7E00020CAF82C0001B0BDE8F08F18
:10183000009721F0030B0026112700BF28462946F8
:1018400000F080FB0446A7F10C0000F029FD0146E2
:10185000204600F00FFC0146284600F069FE0446D1
:101860003046214600F06EFB05462046214600F03A
:1018700069FB0646A7F1080000F012FD014630465C
:1018800000F0F8FB0146204600F052FE04462846D0
:10189000214600F057FB05462046214600F052FB4A
:1018A0000646381F00F0FCFC0146304600F0E2FB23
:1018B0000146204600F03CFE04462846214600F042
:1018C00041FB06462046214600F03CFB05463846D3
:1018D00000F0E6FC0146284600F0CCFB014620461D
:1018E00000F026FE05463046294600F02BFB064652
:1018F000BBF1040B07F11007A0D1A7F10D0B009F5E
:10190000002F47D02846294600F01CFB04464BF028
:10191000010000F0C5FC0146204600F0ABFB01468B
:10192000284600F005FE05463046294600F00AFB31
:10193000012F06462ED02846294600F003FB044618
:101940000BF1050000F0ACFC0146204600F092FBD4
:101950000146284600F0ECFD05463046294600F0D9
:10196000F1FA022F064615D02846294600F0EAFA79
:1019700004460BF1090000F093FC0146204600F0FC
:1019800079FB0146284600F0D3FD0146304600F0C1
:10199000D9FA064608FB09F000F082FC04463046FE
:1019A000314600F0CFFAB1E020F0030900241126FF
:1019B0002846294600F0C6FA0746A6F10C0000F0BA
:1019C0006FFC0146384600F055FB0146284600F002
:1019D000AFFD05462046294600F0B4FA04462846E5
:1019E000294600F0AFFA0746A6F1080000F058FCBF
:1019F0000146384600F03EFB0146284600F098FDBF
:101A000005462046294600F09DFA04462846294608
:101A100000F098FA0746301F00F042FC01463846B5
:101A200000F028FB0146284600F082FD05462046CE
:101A3000294600F087FA04462846294600F082FA33
:101A40000746304600F02CFC0146384600F012FBF9
:101A50000146284600F06CFD05462046294600F068
:101A600071FA0446B9F1040906F11006A0D1A6F1F5
:101A70000D07B8F1000F48D02846294600F062FA59
:101A8000064647F0010000F00BFC0146304600F02E
:101A9000F1FA0146284600F04BFD0546204629464E
:101AA00000F050FAB8F1010F04462ED0284629461E
:101AB00000F048FA0646781D00F0F2FB0146304679
:101AC00000F0D8FA0146284600F032FD05462046CF
:101AD000294600F037FAB8F1020F044615D028461F
:101AE000294600F02FFA064607F1090000F0D8FB5E
:101AF0000146304600F0BEFA0146284600F018FDC7
:101B00000146204600F01EFA04462046214600F019
:101B100019FA00F0A5FBCAF82C0001B0BDE8F08F5F
:101B20002DE9F04140F27008C2F200080121C8F826
:101B3000181040F2D401C2F2000198F800000A6CBB
:101B400041F2FF16C0F27A0600F00103D1F8885086
:101B5000B242D1F820E0D1F8D07038BF1646002B41
:101B600004BF41F2FF16C0F27A0600F00204B5424B
:101B700028BF3546002C08BF354600F00402AF42AE
:101B800028BF2F46002A08BF2F46D1F8185100F071
:101B9000080CBD4228BF3D46BCF1000F08BF3D46C2
:101BA0000027BEF1000F88F8017008BFC8F8187050
:101BB000002B4FF0000305D00F6CAF4204BF012390
:101BC00088F801308F6E002F04BF0027C8F8187006
:101BD00034B1D1F88870AF4204BF023388F80130C5
:101BE000D1F8B070002F04BF0027C8F8187032B1C8
:101BF000D1F8D020AA4204BF043388F80130D1F8CC
:101C0000F820002A04BF0022C8F81820BCF1000FF9
:101C100007D0D1F81811A94204BF03F1080188F8D0
:101C2000011048B1D8F81C00C8F81450C562C8F8B3
:101C30002850BDE8F08100BF08F11C00FFF7C0F894
:101C4000D8F81C000121C162C8F81450C562C8F858
:101C50002850BDE8F0810000C2B240F60000C4F296
:101C600001000821FEF700BC10B540F60004C4F2E4
:101C70000104204604210122FEF7F6FB2046042140
:101C80000022BDE81040FEF7EFBB000021F000424B
:101C900001F00043A2F16052B2F5801F28BFD2F1DB
:101CA0007F6C0BD95FEA001C43EAC20242EB507022
:101CB00018BF704728BF20F001007047B2F5801FA1
:101CC000BCBF184670474FEA410C1CF5001F02D2FA
:101CD000084600F028BC70B500F0B4F80000008998
:101CE000FFF7F6BF4FF00040A0F5800070470000FE
:101CF00070B5DFF848C11CEA111E1EBF1CEA13159F
:101D00009EEA0C0F95EA0C0F00F06F8081EA030445
:101D10004EEAD47EAE4421EA4C1123EA4C1341F43E
:101D2000801143F48013AEF17F7EA1FB024CA0FB37
:101D30000365361955EB0C05A1FB034C4CF1000370
:101D4000A0FB021C16EB0C06654153F1000309428F
:101D500018BF46F0010613F4007F0BD14FEA0331A0
:101D60004FEA053041EA155140EA165034036FF04E
:101D700003020AE04FEAC3214FEAC52041EA555168
:101D800040EA5650F4026FF0020202EB2E4201EBE1
:101D9000025585EACE710AD05FEA440C18BF24F0E0
:101DA000004450F1000041F1000120EAD47040F2FB
:101DB000FE7C624500D270BDA84214BF4FF0804443
:101DC0004FF04044002E08BF0024BEF1806FA8BF32
:101DD000A1F1C041BDE8704080F2828001F1C041B4
:101DE00001F000414FF0000070470CEA13159EEA25
:101DF0000C0F18BF95EA0C0F06D081EA030E4FF0C6
:101E000000000EF0004170BD00F01CF88900013E9A
:101E100000F007B800F009B84FEA430C5FEA5C5CD9
:101E200008D081EA030100F05BB84FEA410C5FEA99
:101E30005C5CF6D102494FF0000070470000FF07DC
:101E40000000F87F0EF1020E2EF0030E5EF8046B18
:101E5000364205D4012A43EB030515F5001F12D8BD
:101E6000012841EB010C1CF5001F0CD80ED14FEAE4
:101E7000D17C0CEB4C0C0CF1020C15F5001F08BFCB
:101E80004CEBD37C04E04FF0080C01E04FEAD37C2C
:101E90000CEB4C0526FA05F606F00706B6F1040C25
:101EA00006D20EEB860CBDE870404CF0010C60478A
:101EB000DFE80CF0090B02024FF00041A1F5002110
:101EC0004FF0000070BD19461046012851EB010487
:101ED00018BFD4F5001484BF002001F0004170BD8C
:101EE0000808A0F500114FEA3101704743004FEA9E
:101EF000D30C4FEA3C0C43401FBF40070CF160512C
:101F000013F0FE4F70471CF0006F03D10CF000413E
:101F1000002070470CF0004343EA507040EACC00C8
:101F200010B500F0BAFA00BF000000924FEA0001BD
:101F3000FFF7D6BF4FF00041A1F500214FF00000A0
:101F40007047000090EA010F48BF81F0004100F1A6
:101F5000F682421A3CBF801A89184FEAD052A2EB8F
:101F6000D1534FF07F4C1CEA410F18BF9CEA026F1F
:101F700000F03B804FF0004C4CEA00204CEA01217D
:101F800021FA03FC10EB0C0C1ED202F1FF325FEAC7
:101F90001C2040EBC25038BF70471CF07F0F4FEA47
:101FA000400C18BFBCF17F4F38BF7047C3F120030E
:101FB000994008BF20F00100BCF17F4F38BF704747
:101FC000A0F1C04000F0AFBA4FEA3C00000A40EB7D
:101FD000C25028BF1CF0FF0F4FEA400CE6D018BFDC
:101FE000BCF17F4F38BF7047EAE79CEA026F05D02B
:101FF00010EA5C0F08BF00F00040704710B500F019
:102000004CFA00BF64FBBE3E10B500F0F5F80CBF03
:102010000120002010BD10B500F0EEF814BF012023
:10202000002010BD10B500F04FF98CBF012000203A
:1020300010BD10B500F048F92CBF0120002010BDE4
:1020400010B500F075F994BF0120002010BD10B547
:1020500000F06EF934BF0120002010BD401058BFC1
:10206000C0F14040491058BFC1F140418142EFF3F7
:10207000008070474FF47F0C1CEAD0121EBF1CEA90
:10208000D11392EA0C0F93EA0C0F00F0858090EACE
:10209000010F48BF42F4807240F4000C41F400008C
:1020A0002CF07F4120F07F4000B5A2EB030281427B
:1020B0000FF2081CACEB504E9EF800E0C0F100009F
:1020C0004FEA4E0E00FB0EFC38BF49004FEA2C1CB5
:1020D0000CFB0EF34FEACE1E0EEB635E4FEA112CA3
:1020E0000EFB0CFC4FEAC1214FEA1C5300FB03110D
:1020F00002F5FA024FEA112C0EFB0CFC4FEA0131FB
:102100004FEADC4C00FB0C1142EB2242C14228BFDB
:1021100009184CEB03335DF804EB10EB410143EB82
:10212000C250B2F57C0F38BF704729D512F0F00FBE
:102130001CBF00F1C04000F0004070470081828366
:102140008485868788898B8C8D8E8F9192939596C6
:1021500097999A9C9D9FA0A2A3A5A7A8AAACAEB050
:10216000B2B3B5B7B9BCBEC0C2C5C7C9CCCED1D455
:10217000D7D9DCDFE2E6E9ECF0F3F7FAFE00000085
:102180004FEA400C0CF1807CBCF17E4F28BF7047B9
:10219000B0F1C04000F0C7B90CEAD11390EA010FCA
:1021A00048BF42F48072624538BF634507D213F4DA
:1021B0007F0F16D080EA010000F00040704710B594
:1021C00000F06BF9097EFC3E00F005B880EA0100E2
:1021D00000F00040704780EA010000F0004000F08D
:1021E000A2B912F47F0F04BF0248704780EA0100D1
:1021F00000F099B90000C07F50EA010C00F1138093
:102200001CF5000F58BFBCF5000F01D48842704781
:1022100007D710F5000F58BF11F5000F15D48842ED
:102220007047894270471CF5000F04D5BCF5000FBC
:10223000F7D5814270474FF0807C1CEB400F38BFD0
:102240001CEB410F01D28142704710B500F025F917
:10225000922449004FF000504FF08051FFF7FEBE2E
:10226000C10DD1F19E0206DB4FEA002343F000438B
:1022700023FA02F07047004207D54FEA4001B1F15E
:10228000FE4F02D24FF00000704710B500F005F984
:1022900049922480002070476FEA200070470000B8
:1022A000B0FA80F310FA03F2C3F19D030AD0D90506
:1022B00001EB1220530638BF704700F1010008BF40
:1022C00020F001007047000050EA010C00F113807B
:1022D0001CF5000F58BFBCF5000F01D488427047B1
:1022E00007D710F5000F58BF11F5000F15D488421D
:1022F0007047894270471CF5000F04D5BCF5000FEC
:10230000F7D5814270474FF0807C1CEB400F38BFFF
:102310001CEB410F01D28142704710B500F0BDF8AF
:10232000922449004FF080504FF00051FFF796BEC5
:1023300050EA010C00F113801CF5000F58BFBCF5EA
:10234000000F01D48842704707D710F5000F58BF1F
:1023500011F5000F15D488427047894270471CF56B
:10236000000F04D5BCF5000FF7D5814270474FF040
:10237000807C1CEB400F38BF1CEB410F01D2814227
:10238000704710B500F089F8922449004FF00050D2
:102390004FF08051FFF762BE4FF47F0C1CEAD01261
:1023A0001EBF1CEAD11392EA0C0F93EA0C0F00F047
:1023B000478090EA010F48BF42F480724FF0004C12
:1023C0004CEA00204CEA012102EB0302A0FB0113BE
:1023D000A2F50002002918BF43F001035B0028BFEB
:1023E0004FEA330342EB22425FEA132C4CEBC2501C
:1023F0002EBFBCEB436FB2F57C0F70474FEA036C06
:10240000BCF1004F08BF20F00100B2F57C0F38BFCF
:1024100070470BD582F0FF0212F5803FC8BF7047AE
:1024200000F1C040D8BF00F00040704700F5000C3C
:102430005FEA4C0C48BF7047B0F1C04000F073B881
:102440000CEAD11390EA010F48BF42F48072624552
:1024500038BF634504D280EA010000F000407047B5
:1024600010B500F01AF800BF8900013E00F007B86F
:1024700000F009B85FEA410C5FEA1C6C08D080EA02
:10248000010000F050B85FEA400C5FEA1C6CF6D126
:102490004FF00040A0F5800070470EF1020E2EF0C4
:1024A000030E5EF8044B244204D44FEA4102B2F119
:1024B0007F4F11D84FEA4003B3F17F4F0CD80ED1B4
:1024C0004FEAD07C0CEB4C0C0CF1020CB2F17F4FBC
:1024D00008BF4CEBD17C04E04FF0080C01E04FEA60
:1024E000D17C0CEB4C0324FA03F404F00704B4F1A0
:1024F000040C06D20EEB840CBDE810404CF0010C2D
:102500006047DFE80CF0070802024FF00040A0F53A
:10251000800010BD0846420018BFD2F1807288BF0B
:1025200000F0004010BDFF2141EAD050C0057047C7
:1025300090EA010F48BF81F000413FF50AAD421A11
:1025400004D882F00042A0EB020011444FEAD052BE
:10255000A2EBD1534FF07F4C1CEA410F18BF9CEA0D
:10256000026F4AD04FF0004C4CEA00204CEA0121A7
:1025700021FA03FCB0EB0C0C0FD412F0FE0F36D096
:102580005FEA4C001DD5001240EBC25038BF7047C7
:102590001CF03F0F18BF70470BE05FEA1C20A2F150
:1025A000010240EBC25038BF70471CF07F0F18BFCC
:1025B0007047C3F12003994014BF401E20F0010072
:1025C00070474FEA1223800808BF7047B0FA80FCBA
:1025D000A2EB0C02CCF1280C60FA0CF093EA122F5B
:1025E00004BF00EBC25070474FEAC3707047130A34
:1025F0005FEADC1008BF7047F6E79CEA026F04D080
:1026000010EA5C0F08BF0020704710B5FFF745FFC8
:1026100040DFF63E81F000407047000000000000FF
:102620000000010203040607080901020203040571
:10263000060708090A0B0C0D0E0F10106026000883
:10264000000000201000000028010008702600088B
:1026500010000020E807000044010008000000000E
:1026600001000000100000000024F4000000000041
:04000005080000ED02
:00000001FF
